:100000000C9453010C9400000C9400000C9400001C
:100010000C9400000C9400000C9400000C94000060
:100020000C9400000C9400000C9400000C94000050
:100030000C9475030C9459040C9400000C949804CF
:100040000C9400000C9400000C9400000C94000030
:100050000C940000000000000000000000010002FD
:100060000018004000C00300007004280001301C8C
:10007000000680800010808007A0000A0001E002D6
:1000800008C05005000E03406000381400010C2029
:1000900000000000000005800F800A001B801E0089
:1000A00014001180338036003C00398028002D80F8
:1000B00027802200638066006C00698078007D8064
:1000C00077807200500055805F805A004B804E0050
:1000D00044004180C380C600CC00C980D800DD80C8
:1000E000D780D200F000F580FF80FA00EB80EE00B0
:1000F000E400E180A000A580AF80AA00BB80BE0024
:10010000B400B180938096009C00998088008D8017
:1001100087808200838186018C01898198019D817D
:1001200097819201B001B581BF81BA01AB81AE0167
:10013000A401A181E001E581EF81EA01FB81FE01DB
:10014000F401F181D381D601DC01D981C801CD81CF
:10015000C781C201400145814F814A015B815E0137
:1001600054015181738176017C01798168016D812F
:1001700067816201238126012C01298138013D819B
:1001800037813201100115811F811A010B810E0187
:1001900004010181038306030C03098318031D83F3
:1001A00017831203300335833F833A032B832E03D7
:1001B00024032183600365836F836A037B837E034B
:1001C00074037183538356035C03598348034D833F
:1001D00047834203C003C583CF83CA03DB83DE03A7
:1001E000D403D183F383F603FC03F983E803ED839F
:1001F000E783E203A383A603AC03A983B803BD830B
:10020000B783B203900395839F839A038B838E03F6
:1002100084038183800285828F828A029B829E0270
:1002200094029182B382B602BC02B982A802AD8266
:10023000A782A202E382E602EC02E982F802FD82D2
:10024000F782F202D002D582DF82DA02CB82CE02BE
:10025000C402C182438246024C02498258025D8236
:1002600057825202700275827F827A026B826E021E
:1002700064026182200225822F822A023B823E0292
:1002800034023182138216021C02198208020D8286
:10029000078202021027E80364000A000100001030
:1002A000000110000100F894EE27ECBBF1E0FBBF69
:1002B000EBBFE5BFF8E1F1BDE1BD8DE0A2E0BB27FA
:1002C000ED938A95E9F780E098E0A0E6ED93019739
:1002D000E9F7EFE5EDBFE8E0EEBFC0E6D2E00C9451
:1002E0009703E0E0E0937303AE98AD9A0895DB9A2C
:1002F0000E940305DB980E9403050895E0917303B3
:10030000F0E0309719F4EDDFF2DF87C1E230A0E0D2
:10031000FA0769F40E940905DF01EFB1EC930E942E
:100320001305E0917403E03009F48BC076C1E1302D
:10033000A0E0FA0769F4E0917403E03039F00E941C
:100340000905E081EFB90E94130501C07AC065C1BB
:10035000E930A0E0FA0719F40E9419055EC1EA30FD
:10036000A0E0FA07A1F4EFB1E0937703A09177033F
:10037000A93E21F4689420F80E941905A091770302
:10038000AB3921F4E89420F80E94190546C1EB30FE
:10039000A0E0FA07B9F4EFB1E0937703A0917703F7
:1003A000A83561F420FE03C0E2E0E0937403E0E0CE
:1003B000E0937803E0917303EF5F01C0E9E0E0931D
:1003C00073032BC1EC30A0E0FA0761F4EFB1E093C6
:1003D0007703EFB10E941F0511F00E9424050E94CF
:1003E00019051BC1ED30A0E0FA07C1F5EFB1E095AA
:1003F0000E941F0511F00E9424050E942D05EF7335
:10040000F070E0937803E03089F0A0917703BB2788
:100410000E942D05EC5AFF4FE491F0E0EA27E093AB
:100420007703E0917603EF5FE09376030E9409057E
:10043000A0917703A0830E941305E0917403E0303C
:1004400031F4E0E0E0937303AD9AAE980895E0E0F4
:10045000E0937803ECE0E0937303DFC0E330A0E0C7
:10046000FA0761F4E5E5EFB920FE02C0E9EE01C04C
:10047000EBE9E09377030E941905CFC0E430A0E0D8
:10048000FA0791F40E943105E07811F0C69A01C094
:10049000C6980E9431050E94350529F4E8E50E94BE
:1004A00040050E941905B9C0E530A0E0FA07D9F46B
:1004B0000E943105E078F070E03011F4C69801C078
:1004C000C69A0E9431050E94350561F40E94090513
:1004D000E0810E9440050E941305E0E0E09378036C
:1004E0000E9419059AC0E630A0E0FA0711F00C94BA
:1004F000BD020E943105E078F070E03011F4C6983A
:1005000001C0C69A0E943105EE0FFF1FE0937703EA
:100510000E9446050E942D05EE0FFF1FDF01E0E05F
:10052000C699E1E0F0E0EA2B0E941F0511F00E945D
:100530002405E0917503E030F9F4E6E0E0937503FB
:10054000E0917503E03061F00E942D05EE0FFF1F72
:100550000E941F0511F00E9424050E944605F0CF5D
:100560000E942D05AFEFB0E0EA27E0937803E6E0C4
:10057000E09375030E94190550C0E730A0E0FA0728
:10058000B1F50E942D05E072F070E03011F4C698CC
:1005900001C0C69A0E942D05EE0FFF1FE09378035D
:1005A0000E944605E0917503E03001F5E091740387
:1005B000E03079F4A0E0C699A1E0E1E0EA27E09319
:1005C0007803E0917203E0937503E0917303EF5FAA
:1005D0000BC00E940905E0810E9440050E9413059E
:1005E000E0E0E0937803E6E0E093730316C0E830C0
:1005F000A0E0FA0791F4E0917803E03011F4C69896
:1006000001C0C69A0E944605E0917503E03029F4C6
:10061000E0E0E0937303AD9AAE980895E091730320
:100620000895E881F9816A817B81E0936002F0930B
:1006300061026093620270936302E1E0E0936E03F3
:10064000E0E0E0937503E3E0E0937403E1E0E0931E
:100650007303E0916002EFB9AE9AAD980E94F60480
:1006600024960895E4E0E0936E03E8E0E0937503D8
:10067000E3E0E0937403AE9AAD9AE2E0E093730393
:100680000E94F604CBDFE030E9F7E0916302F091DD
:1006900064026091650270916602E0700895AE9800
:1006A000AD9AE0E0E093730308951A930A9300E093
:1006B00010E000E010E0E0916F03D801F0E0AE1729
:1006C000BF076CF4F801E05AFD4FFF93EF930E94CF
:1006D0008504AF91BF91EC930F5F1F4FECCFE0E02B
:1006E000E09370030991199108950A921A92FA926F
:1006F0006A937A938A939A93AA93BA93EA93FA9312
:10070000EFB7EA938BDFE13010F0F8DD02C00E9412
:10071000FC04E991EFBFF991E991B991A9919991FF
:10072000899179916991F99019900990189592D0D1
:10073000A2D0B4D00E94EF04B2DF979AE0E0F8E1D3
:1007400062E37CE10E947B056CDF68DFE030E9F763
:10075000E0E0E09370037894CADD0E94CB04E130BE
:1007600020F0A0917003A03009F01CC00E94850405
:10077000EA3AC1F4E8ECF0E00E944C05E1E0E093D5
:1007800070030E948504E09371030E948504E09346
:100790006F03E0916F03F0E0AAE0B0E00E9468050B
:1007A0000E944C05A0917003A13011F00C94280414
:1007B0007CDFE0917103F0E0309779F553DFE0934F
:1007C0006302F09364026093650270936602E3E64D
:1007D000F2E0FA93EA930E94CD04EAEAE093600221
:1007E000E0917103E0936102E3E0E093620200E0D4
:1007F00010E00730E0E01E077CF4EAE0F0E00E9441
:100800004C05A0E6B2E0A00FB11FEC91EA930E9464
:10081000AF040F5F1F4FEDCF1BC0E130A0E0FA0720
:1008200091F4E0E6F2E0FA93EA930E94CD04E091BD
:100830006002F091610260916202709163020E9415
:100840007B05EFDE05C0E330A0E0FA0709F449DDDF
:1008500083CFFFCFE0E0EBBBE8EDEABBE0E1E8BB34
:10086000E0E4E7BBE0E0E5BBE9E6E4BBE8E8E2BBE7
:10087000E2E8E1BB0895E0E0E3BFE2BFECBFEFBD1B
:10088000EEBDEDBDECBDE7BDE6BDEBBDEABDE9BD2E
:10089000E8BDE2BDE5BDE4BDE3BD0895E0E0EBB930
:1008A000E8EDEAB9E6E8E0BDE0E0E0BDE7E4E9B99B
:1008B0000895AA93BA93EA93FA93EFB7EA931A9337
:1008C0000A931BB10CB1A12FB0E0ECE1F0E0EA23F8
:1008D000FB23309789F4E52DF0E0E758FC4F0083C7
:1008E0005394EFEFE51509F455247394EFEFE715F2
:1008F00019F47724689421F809911991E991EFBFCF
:10090000F991E991B991A99118951A937720F1F38A
:10091000E42DF0E0E758FC4F10814394EFEFE4152D
:1009200009F44424F8947A947894E12F1991089565
:10093000EA93FA93EFB7EA93882061F08A94E92D5D
:10094000F0E0E858FB4FE081ECB99394EFEFE91544
:1009500009F49924E991EFBFF991E9911895EFEF26
:10096000E815E9F3F894882021F4EBB1F0E0E072A7
:1009700069F4E62DF0E0E858FB4FA881A08363946A
:10098000EFEFE61509F46624839402C0E881ECB920
:10099000789421960895E72D08951A93A981BA8134
:1009A00010961C91A981BA811396EC91A981BA8104
:1009B0001096EC93E981FA811383A981BA8111968B
:1009C0001C91A981BA811296EC91A981BA811196E4
:1009D000EC93E981FA811283188123960895E0EC63
:1009E000EDB9E0E0EEB9EEB1EFB10895EDB1F0E0B0
:1009F000E068EDB997980895EDB1F0E0EF77F07009
:100A0000EDB9979A0895E1E0F0E0FA93EA930C9437
:100A10005005E0916E03EF5FE0936E03E150F0E06C
:100A2000E05AFD4F0895E0917403E150E0937403A0
:100A30000895E0917303EF5FE09373030895E093EB
:100A40007803F0E0E0740895E0917803F0E0A9E322
:100A5000B0E0EA27E09378030895E0917803F0E0AE
:100A60000895E0917703F0E00895EE0FFF1FE09303
:100A70007703E0917503E150E0937503E03008954A
:100A8000E0937703E8E0E09375030895E091750340
:100A9000E150E09375030895FA93EA930C9450059E
:100AA000E991F991309639F08DEC9AE00197F1F7E0
:100AB000A8953197C9F70895F195E195F04008950B
:100AC000FA9FF02DEB9FF00DEA9FE02DF10D0895B8
:100AD00004D0F6DF0EF4F0DF0895E894F7FF02C0CB
:100AE000EBDF6894B7FF06C0A095B095119600F8AB
:100AF000039400FA08957A936A93FA93EA93089517
:00000001FF
