:0C0000000C9433010C9400000C940000E0
:10000C000C9400000C9400000C9400000C94000064
:10001C000C9400000C9400000C9400000C94000054
:10002C000C9400000C94F1010C94D1020C9400007F
:10003C000C9410030C9400000C9400000C94000021
:10004C000C9400000C940000000005800F800A0046
:10005C001B801E0014001180338036003C00398058
:10006C0028002D8027802200638066006C00698048
:10007C0078007D8077807200500055805F805A0038
:10008C004B804E0044004180C380C600CC00C98028
:10009C00D800DD80D780D200F000F580FF80FA0018
:1000AC00EB80EE00E400E180A000A580AF80AA0008
:1000BC00BB80BE00B400B180938096009C009980F8
:1000CC0088008D8087808200838186018C018981E4
:1000DC0098019D8197819201B001B581BF81BA01D0
:1000EC00AB81AE01A401A181E001E581EF81EA01C0
:1000FC00FB81FE01F401F181D381D601DC01D981B0
:10010C00C801CD81C781C201400145814F814A019F
:10011C005B815E0154015181738176017C0179818F
:10012C0068016D8167816201238126012C0129817F
:10013C0038013D8137813201100115811F811A016F
:10014C000B810E0104010181038306030C03098357
:10015C0018031D8317831203300335833F833A033F
:10016C002B832E0324032183600365836F836A032F
:10017C007B837E0374037183538356035C0359831F
:10018C0048034D8347834203C003C583CF83CA030F
:10019C00DB83DE03D403D183F383F603FC03F983FF
:1001AC00E803ED83E783E203A383A603AC03A983EF
:1001BC00B803BD83B783B203900395839F839A03DF
:1001CC008B838E0384038183800285828F828A02D3
:1001DC009B829E0294029182B382B602BC02B982C7
:1001EC00A802AD82A782A202E382E602EC02E982B7
:1001FC00F802FD82F782F202D002D582DF82DA02A7
:10020C00CB82CE02C402C182438246024C02498296
:10021C0058025D8257825202700275827F827A0286
:10022C006B826E0264026182200225822F822A0276
:10023C003B823E0234023182138216021C02198266
:10024C0008020D82078202021027E80364000A00EC
:10025C0001000010000110000100F894EE27ECBB27
:10026C00F1E0FBBFEBBFE5BFF8E1F1BDE1BD8DE017
:10027C00A2E0BB27ED938A95E9F780E098E0A0E631
:10028C00ED930197E9F7EFE5EDBFE8E0EEBFC0E6CF
:10029C00D2E00C941302E0E0E0937203AE98AD9AB6
:1002AC000895E0917203F0E0309711F4F4DF2BC065
:1002BC00E230A0E0FA0779F40E947803DF01EFB195
:1002CC00EC93E0917303E150E0937303E0917303BB
:1002DC00E03099F018C0E130A0E0FA07A1F4E09109
:1002EC007303E03051F00E947803E081EFB9E091A4
:1002FC007303E150E093730306C0E0E0E0937203F4
:10030C00AD9AAE9808950895E09172030895E8812E
:10031C00F9816A817B81E0936002F09361026093C2
:10032C00620270936302E1E0E0936E03E0E0E0931D
:10033C007403E3E0E0937303E1E0E0937203E09174
:10034C006002EFB9AE9AAD980E946E0324960895A0
:10035C00E4E0E0936E03E8E0E0937403E3E0E09301
:10036C007303AE9AAD9AE2E0E09372030E946E03BF
:10037C00CBDFE030E9F7E0916302F0916402609129
:10038C00650270916602E0700895AE98AD9AE0E057
:10039C00E093720308951A930A9300E010E000E0D2
:1003AC0010E0E0916F03D801F0E0AE17BF076CF4DA
:1003BC00F801E05AFD4FFF93EF930E94FD02AF91BD
:1003CC00BF91EC930F5F1F4FECCFE0E0E093700315
:1003DC000991199108950A921A92FA926A937A9352
:1003EC008A939A93AA93BA93EA93FA93EFB7EA9300
:1003FC008BDFE13010F055DF02C00E947403E991ED
:10040C00EFBFF991E991B991A9919991899179915C
:10041C006991F9901990099018958ED09ED0B0D012
:10042C000E946703B2DF979AE0E0F8E162E37CE1B7
:10043C000E94B1036CDFE0E0E093700378940E94BB
:10044C004303E13020F0A0917003A03009F01CC0F0
:10045C000E94FD02EA3AC1F4E8ECF0E00E9482034B
:10046C00E1E0E09370030E94FD02E09371030E94AF
:10047C00FD02E0936F03E0916F03F0E0AAE0B0E0BF
:10048C000E949E030E948203A0917003A13011F080
:10049C000C94A00280DFE0917103F0E0309779F5C5
:1004AC0057DFE0936302F0936402609365027093EC
:1004BC006602E3E6F2E0FA93EA930E944503EAEA65
:1004CC00E0936002E0917103E0936102E3E0E0935A
:1004DC00620200E010E00730E0E01E077CF4EAE086
:1004EC00F0E00E948203A0E6B2E0A00FB11FEC91F5
:1004FC00EA930E9427030F5F1F4FEDCF1BC0E13023
:10050C00A0E0FA0791F4E0E6F2E0FA93EA930E9495
:10051C004503E0916002F09161026091620270917A
:10052C0063020E94B103F3DE05C0E330A0E0FA07DA
:10053C0009F4B1DE84CFFFCFE0E0EBBBE8EDEABB22
:10054C00E0E1E8BBE0E4E7BBE0E0E5BBE9E6E4BB07
:10055C00E8E8E2BBE2E8E1BB0895E0E0E3BFE2BF1C
:10056C00ECBFEFBDEEBDEDBDECBDE7BDE6BDEBBD3B
:10057C00EABDE9BDE8BDE2BDE5BDE4BDE3BD08955E
:10058C00E0E0EBB9E8EDEAB9E6E8E0BDE0E0E0BDBB
:10059C00E7E4E9B90895AA93BA93EA93FA93EFB70B
:1005AC00EA931A930A931BB10CB1A12FB0E0ECE1C2
:1005BC00F0E0EA23FB23309789F4E52DF0E0EA58CC
:1005CC00FC4F00835394EFEFE51509F45524739415
:1005DC00EFEFE71519F47724689421F80991199134
:1005EC00E991EFBFF991E991B991A99118951A93F5
:1005FC007720F1F3E42DF0E0EA58FC4F108143949E
:10060C00EFEFE41509F44424F8947A947894E12FEC
:10061C0019910895EA93FA93EFB7EA93882061F061
:10062C008A94E92DF0E0EB58FB4FE081ECB9939400
:10063C00EFEFE91509F49924E991EFBFF991E991EC
:10064C001895EFEFE815E9F3F894882021F4EBB155
:10065C00F0E0E07269F4E62DF0E0EB58FB4FA88176
:10066C00A0836394EFEFE61509F46624839402C02B
:10067C00E881ECB9789421960895E72D08951A93A2
:10068C00A981BA8110961C91A981BA811396EC911B
:10069C00A981BA811096EC93E981FA811383A9811F
:1006AC00BA8111961C91A981BA811296EC91A981FB
:1006BC00BA811196EC93E981FA8112831881239601
:1006CC000895E0ECEDB9E0E0EEB9EEB1EFB10895CC
:1006DC00EDB1F0E0E068EDB997980895E0E4EDB97C
:1006EC00979A0895E0916E03EF5FE0936E03E150EB
:1006FC00F0E0E05AFD4F0895FA93EA930C948603C8
:10070C00E991F991309639F08DEC9AE00197F1F777
:10071C00A8953197C9F70895F195E195F0400895A2
:10072C00FA9FF02DEB9FF00DEA9FE02DF10D08954F
:10073C0004D0F6DF0EF4F0DF0895E894F7FF02C062
:10074C00EBDF6894B7FF06C0A095B095119600F842
:10075C00039400FA08957A936A93FA93EA930895AE
:00000001FF
