:040000000C94530108
:100004000C9400000C9498030C9400000C940000D1
:100014000C9400000C9400000C9400000C9400005C
:100024000C9400000C9400000C9400000C94B90390
:100034000C9469040C9400000C94A8040C94000023
:100044000C9400000C9400000C9400000C9400002C
:100054000000000000000000000100020018004041
:1000640000C00300007004280001301C00068080DA
:100074000010808007A0000A0001E00208C05005BB
:10008400000E03406000381400010C200000000042
:10009400000005800F800A001B801E0014001180E0
:1000A400338036003C00398028002D8027802200D0
:1000B400638066006C00698078007D8077807200C0
:1000C400500055805F805A004B804E0044004180B0
:1000D400C380C600CC00C980D800DD80D780D200A0
:1000E400F000F580FF80FA00EB80EE00E400E18090
:1000F400A000A580AF80AA00BB80BE00B400B18080
:10010400938096009C00998088008D80878082006F
:10011400838186018C01898198019D819781920157
:10012400B001B581BF81BA01AB81AE01A401A18147
:10013400E001E581EF81EA01FB81FE01F401F18137
:10014400D381D601DC01D981C801CD81C781C20127
:10015400400145814F814A015B815E015401518117
:10016400738176017C01798168016D816781620107
:10017400238126012C01298138013D8137813201F7
:10018400100115811F811A010B810E0104010181E7
:10019400038306030C03098318031D8317831203C7
:1001A400300335833F833A032B832E0324032183B7
:1001B400600365836F836A037B837E0374037183A7
:1001C400538356035C03598348034D834783420397
:1001D400C003C583CF83CA03DB83DE03D403D18387
:1001E400F383F603FC03F983E803ED83E783E20377
:1001F400A383A603AC03A983B803BD83B783B20367
:10020400900395839F839A038B838E038403818356
:10021400800285828F828A029B829E02940291824E
:10022400B382B602BC02B982A802AD82A782A2023E
:10023400E382E602EC02E982F802FD82F782F2022E
:10024400D002D582DF82DA02CB82CE02C402C1821E
:10025400438246024C02498258025D82578252020E
:10026400700275827F827A026B826E0264026182FE
:10027400200225822F822A023B823E0234023182EE
:10028400138216021C02198208020D8207820202DE
:100294001027E80364000A000100001000011000A8
:1002A4000100F894EE27ECBBF1E0FBBFEBBFE5BF28
:1002B400F8E1F1BDE1BD8DE0A2E0BB27ED938A95A5
:1002C400E9F780E098E0A0E6ED930197E9F7EFE520
:1002D400EDBFE8E0EEBFC0E6D2E00C94BA03B79BF2
:1002E400B8C021FCB5C068940E94FF0409F4B0C0F2
:1002F400E230A0E0FA0779F40E9405050E94130594
:1003040049F40E941A050E942705E0917403E03025
:1003140009F4B5C09DC0E930A0E0FA0721F4E091EA
:100324007303EF5F93C0EA30A0E0FA0789F40E94F8
:100334000505A0917703A93E19F468940E9430053D
:10034400A0917703AB3919F4E8940E94300580C07A
:10035400EB30A0E0FA07C1F40E9405050E941305E2
:1003640091F4A0917703A83559F420FE03C0E2E08C
:10037400E09374030E943A05E0917303EF5F01C0B8
:10038400E9E0E093730364C0EC30A0E0FA07D9F429
:100394000E9405050E944105EE0FFF1FDF01E0E00A
:1003A400B599E1E00E944A050E944F05E07421F0EE
:1003B4000E944F050E945305E0917503E03011F44B
:1003C4000E94590545C0ED30A0E0FA0711F00C94E5
:1003D4002A020E944F05EE0FFF1FDF01E0E0B59BEC
:1003E400E1E00E944A050E944105E07421F00E9468
:1003F4004F050E945305E0917503E03049F50E94D2
:100404004F05EF73F070E0937803E03089F0A0912A
:100414007703BB270E944F05EC5AFF4FE491F0E0AD
:10042400EA27E0937703E0917603EF5FE0937603A6
:100434000E941A05E0917403E150E0937403E09183
:100444007403E030E1F00E943A05ECE0E0937303BA
:100454000FC121FE0DC1E8940E94FF0409F408C1F4
:10046400E130A0E0FA0709F5E0917503E03069F4A2
:10047400E0917403E03019F00E94620506C0E0E0E8
:10048400E0937303AD9AAE9808950E946F05E078E7
:10049400F070E03011F4C69801C0C69A0E946F054E
:1004A4000E9473050E947805E3C0E330A0E0FA07D8
:1004B400B1F40E947805F0E0E17011F4C69801C02F
:1004C400C69AE0917503E03049F420FE02C0E9EEDB
:1004D40001C0EBE9E09377030E947E05C9C0E430D4
:1004E400A0E0FA07B1F40E946F05E078F070E03004
:1004F40011F4C69801C0C69A0E946F050E94730544
:100504000E94130529F4E8E5E09377030E947E0531
:10051400AFC0E530A0E0FA07D9F40E946F05E07897
:10052400F070E03011F4C69801C0C69A0E946F05BD
:100534000E9473050E94130551F40E946205E0E0D5
:10054400E0937803E0917303EF5FE093730390C04B
:10055400E630A0E0FA0711F00C94F5020E946F0552
:10056400E078F070E03011F4C69801C0C69A0E9499
:100574006F050E9473050E944105EE0FFF1FDF0106
:10058400E0E0C699E1E00E944A050E944F05E0744C
:1005940021F00E944F050E945305E0917503E0305D
:1005A40009F5E6E0E0937503E0917503E03089F026
:1005B4000E944F05EE0FFF1FE09378030E944F0542
:1005C400E07421F00E944F050E9453050E947805B3
:1005D400EBCF0E944F05AFEFB0E0EA27E09378033A
:1005E4000E94590545C0E730A0E0FA0771F50E9462
:1005F4004F05E072F070E03011F4C69801C0C69A5D
:100604000E944F05EE0FFF1FE09378030E9413052D
:10061400D9F4E0917403E03079F4A0E0C699A1E044
:10062400E1E0EA27E0937803E0917203E093750335
:10063400E0917303EF5F06C00E946205E0E0E0937F
:100644007803E6E0E093730313C0E830A0E0FA0710
:1006540079F4E0917803E03011F4C69801C0C69AA9
:100664000E94130529F4E0E0E0937303AD9AAE9879
:100674000895E09173030895E881F9816A817B818B
:10068400E0936002F09361026093620270936302EC
:10069400E1E0E0936E03E0E00E948705AD98E1E0BD
:1006A400E0937303979824960895E1E0E0936E0332
:1006B400E8E00E948705AD9AE2E0E093730397981F
:1006C400D8DFE030E9F7E0916302F09164026091D1
:1006D400650270916602EF7FFF7F6F7F70700895EF
:1006E400AE98AD9AE0E0E093730308951A930A93E9
:1006F40000E010E000E010E0E0916F03D801F0E0CA
:10070400AE17BF076CF4F801E05AFD4FFF93EF9367
:100714000E949504AF91BF91EC930F5F1F4FECCFF4
:10072400E0E0E09370030991199108950A921A92F6
:10073400FA926A937A938A939A93AA93BA93EA93CE
:10074400FA93EFB7EA9395DFE13010F0C8DD01C00A
:10075400979AE991EFBFF991E991B991A99199918A
:10076400899179916991F990199009901895189542
:10077400979A6DD07DD0A0D08ED0B2DF0E948E0526
:1007840078DFE030E9F70E948E05E0E0E093700343
:100794000E94DB04E13020F0A0917003A03009F046
:1007A4001CC00E949504EA3AC1F4E8ECF0E00E940F
:1007B4009605E1E0E09370030E949504E0937103D1
:1007C4000E949504E0936F03E0916F03F0E0AAE0C8
:1007D400B0E00E94B2050E949605A0917003A1307A
:1007E400A1F584DFE0917103F0E0309771F55DDFEE
:1007F400E0936302F093640260936502709366026F
:10080400E3E6F2E0FA93EA930E94DD04EAEAE09375
:100814006002E0917103E0936102E3E0E09362021D
:1008240000E010E00730E0E01E077CF4EAE0F0E0CE
:100834000E949605A0E6B2E0A00FB11FEC91EA93E6
:100844000E94BF040F5F1F4FEDCFA2CFFFCFE0E0A8
:10085400EBBBE8EDEABBE0E0E8BBE0E5E7BBE0E0EA
:10086400E5BBE9E6E4BBE8E8E2BBE2E8E1BB089506
:10087400E0E0E3BFE2BFECBFEFBDEEBDEDBDECBD1C
:10088400E7BDE6BDEBBDEABDE9BDE8BDE2BDE5BD42
:10089400E4BDE3BD0895EBB7F0E0E068EBBFE0E052
:1008A400E5BFE4BFE0E8EABFE0E0E9BFE0E8E8B9BB
:1008B400E0E0E0BF78940895E0E0EBB9E8EDEAB950
:1008C400E6E8E0BDE0E0E0BDE7E4E9B90895AA9315
:1008D400BA93EA93FA93EFB7EA931A930A931BB184
:1008E4000CB1A12FB0E0ECE1F0E0EA23FB23309758
:1008F40089F4E52DF0E0E758FC4F00835394EFEFC3
:10090400E51509F455247394EFEFE71519F47724EA
:10091400689422F809911991E991EFBFF991E9914D
:10092400B991A99118951A937720F1F3E42DF0E089
:10093400E758FC4F10814394EFEFE41509F4442485
:10094400F8947A947894E12F19910895EA93FA939C
:10095400EFB7EA93882061F08A94E92DF0E0E85833
:10096400FB4FE081ECB99394EFEFE91509F4992476
:10097400E991EFBFF991E9911895EFEFE815E9F3E3
:10098400F894882021F4EBB1F0E0E07269F4E62DEC
:10099400F0E0E858FB4FA881A0836394EFEFE615DD
:1009A40009F46624839402C0E881ECB97894219612
:1009B4000895E72D08951A93A981BA8110961C9180
:1009C400A981BA811396EC91A981BA811096EC930E
:1009D400E981FA811383A981BA8111961C91A981B5
:1009E400BA811296EC91A981BA811196EC93E981AE
:1009F400FA81128318812396089521F8E0917303F4
:100A0400F0E030970895E0917703F0E0EE0FFF1FD8
:100A1400DF01E0E0B599E1E0F0E0EA2BE093770351
:100A24000895E0917503E150E0937503E030089573
:100A3400E0916E03EF5FE0936E03E150F0E0E05A63
:100A4400FD4FA0917703A0830895E8E0E093750338
:100A5400E0917403E150E0937403089520F8E8E012
:100A6400E0937503E0917303EF5FE09373030895DC
:100A7400E8E0E0937503E0E0E09378030895E09103
:100A84007503E150E0937503E0917803F0E0089575
:100A9400F0E0EA2BE09378030895E0917803F0E026
:100AA4000895A9E3B0E0EA27E09378030895E6E027
:100AB400E0937503E0917303EF5FE093730308958C
:100AC400E0916E03EF5FE0936E03E150F0E0E05AD3
:100AD400FD4FE081E0937703B8CFE0917703F0E036
:100AE4000895EE0FFF1FE09377030895E0917503D7
:100AF400E150E09375030895E8E0E0937503E09115
:100B04007303EF5FE09373030895E0937503E3E0E9
:100B1400E0937403AE9A0895ECE1F2E360E070E0D0
:100B24000E94C5050C943E03FA93EA930C949A052B
:100B3400E991F991309639F08DEC9AE00197F1F74B
:100B4400A8953197C9F70895F195E195F040089576
:100B5400FA9FF02DEB9FF00DEA9FE02DF10D089523
:100B640004D0F6DF0EF4F0DF0895E894F7FF02C036
:100B7400EBDF6894B7FF06C0A095B095119600F816
:100B8400039400FA08957A936A93FA93EA93089582
:00000001FF
