:040000000C94330128
:100004000C9400000C9400000C9400000C9400006C
:100014000C9400000C9400000C9400000C9400005C
:100024000C9400000C9400000C9400000C94E90162
:100034000C94C9020C9400000C9408030C94000066
:100044000C9400000C9400000C9400000C9400002C
:10005400000005800F800A001B801E001400118020
:10006400338036003C00398028002D802780220010
:10007400638066006C00698078007D807780720000
:10008400500055805F805A004B804E0044004180F0
:10009400C380C600CC00C980D800DD80D780D200E0
:1000A400F000F580FF80FA00EB80EE00E400E180D0
:1000B400A000A580AF80AA00BB80BE00B400B180C0
:1000C400938096009C00998088008D8087808200B0
:1000D400838186018C01898198019D819781920198
:1000E400B001B581BF81BA01AB81AE01A401A18188
:1000F400E001E581EF81EA01FB81FE01F401F18178
:10010400D381D601DC01D981C801CD81C781C20167
:10011400400145814F814A015B815E015401518157
:10012400738176017C01798168016D816781620147
:10013400238126012C01298138013D813781320137
:10014400100115811F811A010B810E010401018127
:10015400038306030C03098318031D831783120307
:10016400300335833F833A032B832E0324032183F7
:10017400600365836F836A037B837E0374037183E7
:10018400538356035C03598348034D8347834203D7
:10019400C003C583CF83CA03DB83DE03D403D183C7
:1001A400F383F603FC03F983E803ED83E783E203B7
:1001B400A383A603AC03A983B803BD83B783B203A7
:1001C400900395839F839A038B838E038403818397
:1001D400800285828F828A029B829E02940291828F
:1001E400B382B602BC02B982A802AD82A782A2027F
:1001F400E382E602EC02E982F802FD82F782F2026F
:10020400D002D582DF82DA02CB82CE02C402C1825E
:10021400438246024C02498258025D82578252024E
:10022400700275827F827A026B826E02640261823E
:10023400200225822F822A023B823E02340231822E
:10024400138216021C02198208020D82078202021E
:100254001027E80364000A000100001000011000E8
:100264000100F894EE27ECBBF1E0FBBFEBBFE5BF68
:10027400F8E1F1BDE1BD8DE0A2E0BB27ED938A95E5
:10028400E9F780E098E0A0E6ED930197E9F7EFE560
:10029400EDBFE8E0EEBFC0E6D2E00C940B02E0E074
:1002A400E0937203AE98AD9A0895E0917203F0E082
:1002B400309711F4F4DF2BC0E230A0E0FA0779F4B0
:1002C4000E946D03DF01EFB1EC93E0917303E15001
:1002D400E0937303E0917303E03099F018C0E130C8
:1002E400A0E0FA07A1F4E0917303E03051F00E941A
:1002F4006D03E081EFB9E0917303E150E093730380
:1003040006C0E0E0E0937203AD9AAE9808950895B4
:10031400E09172030895E881F9816A817B81E09319
:100324006002F09361026093620270936302E1E001
:10033400E0936E03E0E00E947703AD98E1E0E09380
:100344007203E0916002EFB90E9466032496089557
:10035400E4E0E0936E03E8E00E947703AD9AE2E004
:10036400E09372030E946603D3DFE030E9F7E09183
:100374006302F09164026091650270916602E0701C
:100384000895AE98AD9AE0E0E093720308951A934D
:100394000A9300E010E000E010E0E0916F03D80160
:1003A400F0E0AE17BF076CF4F801E05AFD4FFF937D
:1003B400EF930E94F502AF91BF91EC930F5F1F4F33
:1003C400ECCFE0E0E09370030991199108950A924B
:1003D4001A92FA926A937A938A939A93AA93BA9303
:1003E400EA93FA93EFB7EA9393DFE13010F05DDF1D
:1003F40002C00E946A03E991EFBFF991E991B991B2
:10040400A9919991899179916991F990199009909B
:1004140018958ED09ED0B0D00E945F03B2DF0E94A8
:100424007E0376DFE030E9F70E947E03E0E0E093AC
:100434007003789497980E943B03E13020F0A091D8
:100444007003A03009F01CC00E94F502EA3AC1F41E
:10045400E8ECF0E00E948603E1E0E09370030E9480
:10046400F502E09371030E94F502E0936F03E091BB
:100474006F03F0E0AAE0B0E00E94A2030E948603AA
:10048400A0917003A13011F00C94980280DFE091E8
:100494007103F0E0309779F55BDFE0936302F0934A
:1004A40064026093650270936602E3E6F2E0FA93F5
:1004B400EA930E943D03EAEAE0936002E09171034B
:1004C400E0936102E3E0E093620200E010E00730B1
:1004D400E0E01E077CF4EAE0F0E00E948603A0E678
:1004E400B2E0A00FB11FEC91EA930E941F030F5FCB
:1004F4001F4FEDCF1BC0E130A0E0FA0791F4E0E616
:10050400F2E0FA93EA930E943D03E0916002F091D5
:10051400610260916202709163020E94B503FBDE86
:1005240005C0E330A0E0FA0709F4B9DE84CFFFCFB9
:10053400E0E0EBBBE8EDEABBE0E1E8BBE0E4E7BB0D
:10054400E0E0E5BBE9E6E4BBE8E8E2BBE2E8E1BB06
:100554000895E0E0E3BFE2BFECBFEFBDEEBDEDBD4B
:10056400ECBDE7BDE6BDEBBDEABDE9BDE8BDE2BD5E
:10057400E5BDE4BDE3BD0895E0E0EBB9E8EDEAB91B
:10058400E6E8E0BDE0E0E0BDE7E4E9B90895AA9358
:10059400BA93EA93FA93EFB7EA931A930A931BB1C7
:1005A4000CB1A12FB0E0ECE1F0E0EA23FB2330979B
:1005B40089F4E52DF0E0EA58FC4F00835394EFEF03
:1005C400E51509F455247394EFEFE71519F477242E
:1005D400689421F809911991E991EFBFF991E99192
:1005E400B991A99118951A937720F1F3E42DF0E0CD
:1005F400EA58FC4F10814394EFEFE41509F44424C6
:10060400F8947A947894E12F19910895EA93FA93DF
:10061400EFB7EA93882061F08A94E92DF0E0EB5873
:10062400FB4FE081ECB99394EFEFE91509F49924B9
:10063400E991EFBFF991E9911895EFEFE815E9F326
:10064400F894882021F4EBB1F0E0E07269F4E62D2F
:10065400F0E0EB58FB4FA881A0836394EFEFE6151D
:1006640009F46624839402C0E881ECB97894219655
:100674000895E72D08951A93A981BA8110961C91C3
:10068400A981BA811396EC91A981BA811096EC9351
:10069400E981FA811383A981BA8111961C91A981F8
:1006A400BA811296EC91A981BA811196EC93E981F1
:1006B400FA811283188123960895E0ECEDB9E0E005
:1006C400EEB9EEB1EFB10895EDB1F0E0E06801C02C
:1006D400E0E4EDB90895E0916E03EF5FE0936E03FB
:1006E400E150F0E0E05AFD4F0895E0937403E3E035
:1006F400E0937303AE9A0895E0E0F8E162E37CE1ED
:100704000E94B5030C948D01FA93EA930C948A0326
:10071400E991F991309639F08DEC9AE00197F1F76F
:10072400A8953197C9F70895F195E195F04008959A
:10073400FA9FF02DEB9FF00DEA9FE02DF10D089547
:1007440004D0F6DF0EF4F0DF0895E894F7FF02C05A
:10075400EBDF6894B7FF06C0A095B095119600F83A
:10076400039400FA08957A936A93FA93EA930895A6
:00000001FF
