:020000000C945E
:1000020053010C9400000C94AC030C9400000C946B
:1000120000000C9400000C9400000C9400000C945E
:1000220000000C9400000C9400000C9400000C944E
:10003200CD030C9483040C9400000C94C2040C9421
:1000420000000C9400000C9400000C9400000C942E
:100052000000000000000000000000010002001883
:10006200004000C00300007004280001301C00069C
:1000720080800010808007A0000A0001E00208C012
:100082005005000E03406000381400010C200000EF
:100092000000000005800F800A001B801E00140073
:1000A2001180338036003C00398028002D80278063
:1000B2002200638066006C00698078007D80778012
:1000C2007200500055805F805A004B804E00440001
:1000D2004180C380C600CC00C980D800DD80D780B3
:1000E200D200F000F580FF80FA00EB80EE00E40021
:1000F200E180A000A580AF80AA00BB80BE00B40052
:10010200B180938096009C00998088008D808780C2
:100112008200838186018C01898198019D8197816A
:100122009201B001B581BF81BA01AB81AE01A401D8
:10013200A181E001E581EF81EA01FB81FE01F40189
:10014200F181D381D601DC01D981C801CD81C7817A
:10015200C201400145814F814A015B815E01540128
:100162005181738176017C01798168016D8167819A
:100172006201238126012C01298138013D813781C9
:100182003201100115811F811A010B810E01040138
:100192000181038306030C03098318031D8317835C
:1001A2001203300335833F833A032B832E03240348
:1001B2002183600365836F836A037B837E037403F9
:1001C2007183538356035C03598348034D834783EA
:1001D2004203C003C583CF83CA03DB83DE03D40398
:1001E200D183F383F603FC03F983E803ED83E7830A
:1001F200E203A383A603AC03A983B803BD83B78339
:10020200B203900395839F839A038B838E038403A7
:100212008183800285828F828A029B829E0294025F
:100222009182B382B602BC02B982A802AD82A782D1
:10023200A202E382E602EC02E982F802FD82F78280
:10024200F202D002D582DF82DA02CB82CE02C4026F
:10025200C182438246024C02498258025D82578221
:100262005202700275827F827A026B826E0264028F
:100272006182200225822F822A023B823E023402C0
:100282003182138216021C02198208020D82078231
:1002920002021027E80364000A00010000100001B6
:1002A20010000100F894EE27ECBBF1E0FBBFEBBFBE
:1002B200E5BFF8E1F1BDE1BD8DE0A2E0BB27ED9322
:1002C2008A95E9F780E098E0A0E6ED930197E9F7D7
:1002D200EFE5EDBFE8E0EEBFC0E6D2E00C94CE035E
:1002E200B79BB8C021FCB5C068940E94190509F4F7
:1002F200B0C0E230A0E0FA0779F40E941F050E9424
:100302002D0549F40E9434050E944105E0917403D1
:10031200E03009F4B5C09DC0E930A0E0FA0721F44D
:10032200E0917303EF5F93C0EA30A0E0FA0789F42B
:100332000E941F05A0917703A93E19F468940E94B8
:100342004A05A0917703AB3919F4E8940E944A0553
:1003520080C0EB30A0E0FA07C1F40E941F050E94A2
:100362002D0591F4A0917703A83559F420FE03C01E
:10037200E2E0E09374030E945405E0917303EF5F9F
:1003820001C0E9E0E093730364C0EC30A0E0FA0737
:10039200D9F40E941F050E945B05EE0FFF1FDF01CB
:1003A200E0E0B599E1E00E9464050E946905E0740D
:1003B20021F00E9469050E946D05E0917503E0300D
:1003C20011F40E94730545C0ED30A0E0FA0711F068
:1003D2000C942A020E946905EE0FFF1FDF01E0E084
:1003E200B59BE1E00E9464050E945B05E07421F088
:1003F2000E9469050E946D05E0917503E03049F5A0
:100402000E946905EF73F070E0937803E03089F0A1
:10041200A0917703BB270E946905EC5AFF4FE49134
:10042200F0E0EA27E0937703E0917603EF5FE09351
:1004320076030E943405E0917403E150E093740363
:10044200E0917403E030E1F00E945405ECE0E093A7
:1004520073030FC121FE0DC1E8940E94190509F42E
:1004620008C1E130A0E0FA0709F5E0917503E03038
:1004720069F4E0917403E03019F00E947C0506C033
:10048200E0E0E0937303AD9AAE9808950E94890567
:10049200E078F070E03011F4C69801C0C69A0E946C
:1004A20089050E948D050E949205E3C0E330A0E019
:1004B200FA07B1F40E949205F0E0E17011F4C698D7
:1004C20001C0C69AE0917503E03049F420FE02C0F3
:1004D200E9EE01C0EBE9E09377030E949805C9C0F9
:1004E200E430A0E0FA07B1F40E948905E078F070E8
:1004F200E03011F4C69801C0C69A0E9489050E9494
:100502008D050E942D0529F4E8E5E09377030E940A
:100512009805AFC0E530A0E0FA07D9F40E9489053A
:10052200E078F070E03011F4C69801C0C69A0E94DB
:1005320089050E948D050E942D0551F40E947C05BB
:10054200E0E0E0937803E0917303EF5FE0937303DD
:1005520090C0E630A0E0FA0711F00C94F5020E9478
:100562008905E078F070E03011F4C69801C0C69AAF
:100572000E9489050E948D050E945B05EE0FFF1FF8
:10058200DF01E0E0C699E1E00E9464050E9469058E
:10059200E07421F00E9469050E946D05E0917503E7
:1005A200E03009F5E6E0E0937503E0917503E03091
:1005B20089F00E946905EE0FFF1FE09378030E9405
:1005C2006905E07421F00E9469050E946D050E9490
:1005D2009205EBCF0E946905AFEFB0E0EA27E09306
:1005E20078030E94730545C0E730A0E0FA0771F571
:1005F2000E946905E072F070E03011F4C69801C003
:10060200C69A0E946905EE0FFF1FE09378030E94CD
:100612002D05D9F4E0917403E03079F4A0E0C69995
:10062200A1E0E1E0EA27E0937803E0917203E0932E
:100632007503E0917303EF5F06C00E947C05E0E062
:10064200E0937803E6E0E093730313C0E830A0E0A0
:10065200FA0779F4E0917803E03011F4C69801C00A
:10066200C69A0E942D0529F4E0E0E0937303AD9A47
:10067200AE980895E09173030895E881F9816A8143
:100682007B810E94A105E1E0E0936E03E0E00E941D
:10069200AA05AD98E1E0E093730383982496089548
:1006A200E1E0E0936E03E8E00E94AA05AD9AE2E081
:1006B200E0937303839ADEDFE030E9F7E0916302AF
:1006C200F09164026091650270916602EF7FFF7F94
:1006D2006F7F70700895AE98AD9AE0E0E093730377
:1006E20008951A930A9300E010E0EA81F0E031974E
:1006F2000E171F0764F4F801AB81BC81AE0FBF1F58
:10070200EC91EA930E94D9040F5F1F4FEECF19813B
:100712000881259608951A930A9300E010E000E0FC
:1007220010E0E0916F03D801F0E0AE17BF076CF460
:10073200F801E05AFD4FFF93EF930E94AF04AF918F
:10074200BF91EC930F5F1F4FECCFE0E0E09370039B
:100752000991199108950A921A92FA926A937A93D8
:100762008A939A93AA93BA93EA93FA93EFB7EA9386
:1007720081DFE13010F0B4DD01C0839AE991EFBF6F
:10078200F991E991B991A991999189917991699197
:10079200F9901990099018951895839A73D083D07F
:1007A200A6D094D098DF0E94B10564DFE030E9F76B
:1007B2000E94B105E0E0E09370030E94F504E1308D
:1007C20020F0A0917003A03009F020C00E94AF0475
:1007D200EA3AE1F4E8ECF0E0FA93EA930E94B90510
:1007E200E1E0E09370030E94AF04E09371030E9482
:1007F200AF04E0936F03E0916F03F0E0AAE0B0E092
:100802000E94D105FA93EA930E94B905A091700360
:10081200A130B1F580DFE0917103F0E03097D9F4B7
:100822003FDF0E94A105E3E6F2E0FA93EA930E9419
:10083200F704EAEAE0936002E0917103E093610257
:10084200E3E0E0936202E0E6F2E0FA93EA93E7E0A3
:10085200EA9347DF15C0E130A0E0FA0789F4E0E649
:10086200F2E0FA93EA930E94F704E0916002F091B9
:10087200610260916202709163020E94E405FDDEF2
:100882009CCFFFCFE0E0EBBBE8EDEABBE0E0E8BBEA
:10089200E0E5E7BBE0E0E5BBE9E6E4BBE8E8E2BBB4
:1008A200E2E8E1BB0895E0E0E3BFE2BFECBFEFBDE9
:1008B200EEBDEDBDECBDE7BDE6BDEBBDEABDE9BDFC
:1008C200E8BDE2BDE5BDE4BDE3BD0895EBB7F0E0F0
:1008D200E068EBBFE0E0E5BFE4BFE0E8EABFE0E0EC
:1008E200E9BFE0E8E8B9E0E0E0BF78940895E0E02D
:1008F200EBB9E8EDEAB9E6E8E0BDE0E0E0BDE7E447
:10090200E9B90895AA93BA93EA93FA93EFB7EA93EF
:100912001A930A931BB10CB1A12FB0E0ECE1F0E005
:10092200EA23FB23309789F4E52DF0E0E758FC4FEA
:1009320000835394EFEFE51509F455247394EFEF18
:10094200E71519F47724689422F809911991E9912D
:10095200EFBFF991E991B991A99118951A9377206E
:10096200F1F3E42DF0E0E758FC4F10814394EFEFF0
:10097200E41509F44424F8947A947894E12F1991B7
:100982000895EA93FA93EFB7EA93882061F08A9484
:10099200E92DF0E0E858FB4FE081ECB99394EFEFDA
:1009A200E91509F49924E991EFBFF991E9911895B4
:1009B200EFEFE815E9F3F894882021F4EBB1F0E0C9
:1009C200E07269F4E62DF0E0E858FB4FA881A083BD
:1009D2006394EFEFE61509F46624839402C0E8817C
:1009E200ECB9789421960895E72D08951A93A98178
:1009F200BA8110961C91A981BA811396EC91A981B2
:100A0200BA811096EC93E981FA811383A981BA81A4
:100A120011961C91A981BA811296EC91A981BA8191
:100A22001196EC93E981FA81128318812396089535
:100A320021F8E0917303F0E030970895E091770395
:100A4200F0E0EE0FFF1FDF01E0E0B599E1E0F0E03A
:100A5200EA2BE09377030895E0917503E150E09368
:100A62007503E0300895E0916E03EF5FE0936E034B
:100A7200E150F0E0E05AFD4FA0917703A083089582
:100A8200E8E0E0937503E0917403E150E0937403AE
:100A9200089520F8E8E0E0937503E0917303EF5FB7
:100AA200E09373030895E8E0E0937503E0E0E093D8
:100AB20078030895E0917503E150E0937503E091A6
:100AC2007803F0E00895F0E0EA2BE09378030895CC
:100AD200E0917803F0E00895A9E3B0E0EA27E0931B
:100AE20078030895E6E0E0937503E0917303EF5F06
:100AF200E09373030895E0916E03EF5FE0936E035A
:100B0200E150F0E0E05AFD4FE081E0937703B8CF87
:100B1200E0917703F0E00895EE0FFF1FE093770373
:100B22000895E0917503E150E09375030895E8E0BC
:100B3200E0937503E0917303EF5FE093730308950D
:100B4200E0936002F0936102609362027093630229
:100B52000895E0937503E3E0E0937403AE9A089579
:100B6200ECE1F2E360E070E00E94E4050C943E03E5
:100B7200E991F991309639F08DEC9AE00197F1F70D
:100B8200A8953197C9F70895F195E195F040089538
:100B9200FA9FF02DEB9FF00DEA9FE02DF10D0895E5
:100BA20004D0F6DF0EF4F0DF0895E894F7FF02C0F8
:100BB200EBDF6894B7FF06C0A095B095119600F8D8
:100BC200039400FA08957A936A93FA93EA93089544
:00000001FF
