:020000000C945E
:1000020058000C9400000C942D030C9400000C94E6
:1000120000000C9400000C9400000C9400000C945E
:1000220000000C9400000C9400000C9400000C944E
:1000320000000C946A040C9400000C94A9040C9423
:1000420000000C9400000C9400000C9400000C942E
:100052000000000000000000000000010002001883
:10006200004000C00300007004280001301C00069C
:1000720080800010808007A0000A0001E00208C012
:100082005005000E03406000381400010C200000EF
:1000920000001027E80364000A00010000100001BC
:1000A20010000100240001007303A6000000F89470
:1000B200EE27ECBBF1E0FBBFEBBFE5BFF8E1F1BD22
:1000C200E1BD8DE0A2E0BB27ED938A95E9F780E0E0
:1000D20098E0A0E6ED930197E9F7E8EAF0E0859170
:1000E2009591009761F0A591B59105901590BF018A
:1000F200F00105900D920197E1F7FB01F0CFEFE5DA
:10010200EDBFE8E0EEBFC0E6D2E00C944E03B79B31
:10011200D6C021FCD3C068940E94000509F4CEC069
:10012200E230A0E0FA0779F40E9406050E94140565
:1001320049F40E941B050E942805E0917603E030F5
:1001420009F4D3C0BBC0E930A0E0FA0721F4E09182
:100152007503EF5FB1C0EA30A0E0FA0789F40E94AC
:100162000605A0917903A93E19F468940E9431050D
:10017200A0917903AB3919F4E8940E9431059EC02D
:10018200EB30A0E0FA07B9F40E9406050E941405BC
:1001920089F4A0917903A83551F420FE03C0E3E06D
:1001A200E0937603E8E0E0937703E1E101C0E9E060
:1001B200E093750383C0E131A0E0FA07B9F40E942D
:1001C20006050E94140589F4E0917903E0936F0318
:1001D200E0917903E0937603E8E0E0937703ECE0C3
:1001E200E0937503E0E0E0937A0368C0EC30A0E0AE
:1001F200FA07D9F40E9406050E943B05EE0FFF1F85
:10020200DF01E0E0B599E1E00E9444050E94490562
:10021200E07421F00E9449050E944D05E0917703A8
:10022200E03011F40E94530549C0ED30A0E0FA0716
:1002320011F00C945F010E944905EE0FFF1FDF01D0
:10024200E0E0B59BE1E00E9444050E943B05E074BA
:1002520021F00E9449050E944D05E0917703E030AC
:1002620069F50E944905EF73F070E0937A03E0307C
:1002720089F0A0917903BB270E944905EC5AFF4FF0
:10028200E491F0E0EA27E0937903E0917803EF5FED
:10029200E09378030E941B05E0917603E150E0931E
:1002A2007603E0917603E03001F1E8E0E093770332
:1002B200E0E0E0937A03ECE0E09375032CC121FEC9
:1002C2002AC1E8940E94000509F425C1E130A0E0AA
:1002D200FA0709F5E0917703E03069F4E0917603DB
:1002E200E03019F00E945C0506C0E0E0E09375037F
:1002F200AD9AAE9808950E946905E078F070E030FA
:1003020011F4C69801C0C69A0E9469050E946D0543
:100312000E94720500C1E330A0E0FA07B1F40E9426
:100322007205F0E0E17011F4C69801C0C69AE0913E
:100332007703E03049F420FE02C0E9EE01C0EBE9A8
:10034200E09379030E947805E6C0E430A0E0FA0762
:10035200B1F40E946905E078F070E03011F4C698BB
:1003620001C0C69A0E9469050E946D050E9414058B
:1003720029F4E8E5E09379030E947805CCC0E530E2
:10038200A0E0FA07D9F40E946905E078F070E03045
:1003920011F4C69801C0C69A0E9469050E946D05B3
:1003A2000E94140551F4E0916F03E0937903E8E0B1
:1003B200E0937703E0E1E0937503ADC0E031A0E0A4
:1003C200FA07C9F40E946905E078F070E03011F490
:1003D200C69801C0C69A0E9469050E946D050E94D6
:1003E200140541F40E945C05E0E0E0937A03E6E044
:1003F200E093750390C0E630A0E0FA0711F00C9488
:1004020047020E946905E078F070E03011F4C69866
:1004120001C0C69A0E9469050E946D050E943B05B3
:10042200EE0FFF1FDF01E0E0C699E1E00E94440504
:100432000E944905E07421F00E9449050E944D0581
:10044200E0917703E03009F5E6E0E0937703E0918D
:100452007703E03089F00E944905EE0FFF1FE09319
:100462007A030E944905E07421F00E9449050E9426
:100472004D050E947205EBCF0E944905AFEFB0E037
:10048200EA27E0937A030E94530545C0E730A0E0D3
:10049200FA0771F50E944905E072F070E03011F43C
:1004A200C69801C0C69A0E944905EE0FFF1FE0934D
:1004B2007A030E941405D9F4E0917603E03079F4CE
:1004C200A0E0C699A1E0E1E0EA27E0937A03E09197
:1004D2007203E0937703E0917503EF5F06C00E9419
:1004E2005C05E0E0E0937A03E6E0E093750313C075
:1004F200E830A0E0FA0779F4E0917A03E03011F4F1
:10050200C69801C0C69A0E94140529F4E0E0E0935F
:100512007503AD9AAE980895E09175030895E88148
:10052200F9816A817B81E0936002F09361026093BA
:10053200620270936302E1E0E0936E03E0E00E94E6
:100542008105AD98E1E0E0937503979824960895AC
:10055200E4E0E0936E03E8E00E948105AD9AE2E0F8
:10056200E09375039798D8DFE030E9F7E0916302F2
:10057200F09164026091650270916602E0700895E4
:10058200AE98AD9AE0E0E09375030895E0E0E09361
:100592007503AE98AD9A0895E8810E94040620F88A
:1005A200E0E0E0936E03E0E1E0937703E981E0931A
:1005B2007603AE98AD98E3E0E093750397982296A0
:1005C2000895E3E0E0936E03E0917303E093760312
:1005D200E0E0E0937803AE98AD9AE9E0E09375032A
:1005E200979808951A930A9300E010E0EA810E9416
:1005F200880584F4E2E0F0E00E948D05F801AB8109
:10060200BC81AE0FBF1FEC91EA930E94C0040F5F42
:100612001F4FECCF19810881259608951A930A93EA
:1006220000E010E000E010E0E0916F030E94880516
:100632006CF4F801E05AFD4FFF93EF930E94960489
:10064200AF91BF91EC930F5F1F4FEECFE0E0E093CD
:1006520070030991199108950A921A92FA926A9373
:100662007A938A939A93AA93BA93EA93FA93EFB7F7
:10067200EA9352DFE13010F04ADD01C0979AE99126
:10068200EFBFF991E991B991A991999189917991E4
:100692006991F990199009901895DBD0EBD00ED1A1
:1006A200979AFBD06DDF0E94910536DFE030E9F7C3
:1006B2000E949105E0E0E09370030E94DC04E130C7
:1006C20020F0A0917003A03009F01EC00E94960491
:1006D200EA3AD1F4E2E3F0E00E948D05E1E0E09332
:1006E20070030E949604E09371030E949604E093C3
:1006F2006F030E949905EE0FFF1F0E948D05DB9B81
:1007020002C0DB9801C0DB9AA0917003A13011F006
:100712000C94080483DFE0917103F0E03097E9F470
:1007220017DFE0936302F0936402609365027093B3
:100732006602E3E6F2E0FA93EA930E94DE040E9484
:100742009D05E4E00E94A505E7E0EA934BDFDB9B11
:1007520002C0DB9801C0DB9A5AC0E130A0E0FA0780
:1007620091F4E0E6F2E0FA93EA930E94DE04E0916B
:100772006002F091610260916202709163020E94D4
:10078200F805CDDE44C0E530A0E0FA0741F4E0917F
:100792006002F0E0E0937303F093740338C0E43036
:1007A200A0E0FA0789F40E949D05E1E0E09362026D
:1007B200E0917303E0936302E0E6F2E0FA93EA93D6
:1007C200E4E0EA930FDF23C0E330A0E0FA07D1F4BC
:1007D200DDDE0E949905AEE0B0E00E94C405DF01B3
:1007E200E8E0F0E00E94DC05A8E0B0E00E94FD0530
:1007F200EA1BE0937203E0916F03EA93E0E0EA936D
:10080200CBDE05C0E230A0E0FA0709F4DADE9C99FB
:1008120019C0A0E0CA99A1E0A130A1F4D2DEE0E1C2
:10082200F0E00E948D05EAEAE0936002E2E0E093E4
:100832006102E0916F030E94A5050E94990533961B
:10084200EA93D0DEDB9B02C0DB9801C0DB9A35CF96
:10085200FFCFE0E0EBBBE8EDEABBE0E0E8BBE0E5C0
:10086200E7BBE0E0E5BBE9E6E4BBE8E8E2BBE2E8DF
:10087200E1BB0895E0E0E3BFE2BFECBFEFBDEEBD38
:10088200EDBDECBDE7BDE6BDEBBDEABDE9BDE8BD32
:10089200E2BDE5BDE4BDE3BD0895EBB7F0E0E0687D
:1008A200EBBFE0E0E5BFE4BFE0E8EABFE0E0E9BFBC
:1008B200E0E8E8B9E0E0E0BF78940895E0E0EBB961
:1008C200E8EDEAB9E6E8E0BDE0E0E0BDE7E4E9B979
:1008D2000895AA93BA93EA93FA93EFB7EA931A9315
:1008E2000A931BB10CB1A12FB0E0ECE1F0E0EA23D6
:1008F200FB23309789F4E52DF0E0E558FC4F0083A7
:100902005394EFEFE51509F455247394EFEFE715CF
:1009120019F47724689422F809911991E991EFBFAB
:10092200F991E991B991A99118951A937720F1F368
:10093200E42DF0E0E558FC4F10814394EFEFE4150D
:1009420009F44424F8947A947894E12F1991089543
:10095200EA93FA93EFB7EA93882061F08A94E92D3B
:10096200F0E0E658FB4FE081ECB99394EFEFE91524
:1009720009F49924E991EFBFF991E9911895EFEF04
:10098200E815E9F3F894882021F4EBB1F0E0E07285
:1009920069F4E62DF0E0E658FB4FA881A08363944A
:1009A200EFEFE61509F46624839402C0E881ECB9FE
:1009B200789421960895E72D08951A93A981BA8112
:1009C20010961C91A981BA811396EC91A981BA81E2
:1009D2001096EC93E981FA811383A981BA81119669
:1009E2001C91A981BA811296EC91A981BA811196C2
:1009F200EC93E981FA81128318812396089521F8F4
:100A0200E0917503F0E030970895E0917903F0E00A
:100A1200EE0FFF1FDF01E0E0B599E1E0F0E0EA2B25
:100A2200E09379030895E0917703E150E09377032F
:100A3200E0300895E0916E03EF5FE0936E03E150C2
:100A4200F0E0E05AFD4FA0917903A0830895E8E019
:100A5200E0937703E0917603E150E0937603089503
:100A620020F8E8E0E0937703E0917503EF5FE0930D
:100A720075030895E0917703E150E0937703E091E5
:100A82007A03F0E00895F0E0EA2BE0937A03089508
:100A9200E0917A03F0E00895A9E3B0E0EA27E09359
:100AA2007A030895E6E0E0937703E0917503EF5F40
:100AB200E09375030895E0916E03EF5FE0936E0398
:100AC200E150F0E0E05AFD4FE081E0937903BFCFBF
:100AD200E0917903F0E00895EE0FFF1FE0937903B0
:100AE2000895E0917703E150E09377030895E8E0F9
:100AF200E0937703E0917503EF5FE0937503089548
:100B0200E0937703E3E0E0937603AE9A0895D80189
:100B1200F0E0AE17BF070895FA93EA930C94AC0580
:100B2200E0E0F3E166E372ED0E94F8050C949002B6
:100B3200E0916F03F0E00895EAEAE0936002E09149
:100B42007103E09361020895E0936202E0E6F2E04D
:100B5200FA93EA930895E991F991309639F080EA8F
:100B62009FE00197F1F7A8953197C9F70895F1959C
:100B7200E195F0400895FA9FF02DEB9FF00DEA9F6A
:100B8200E02DF10D089525D0F6DF0EF4F0DF089583
:100B92000024112490E1AA0FBB1F001C111C0E1A85
:100BA2001F0A18F40E0E1F1E01C0A1609A9599F734
:100BB200FD01D0010895E894B7FF04C0A095B09557
:100BC20011966894F7FDD3DFE3DFFD010EF4CFDF6A
:100BD2000895E894F7FF02C0CADF6894B7FF06C021
:100BE200A095B095119600F8039400FA08957A93AF
:100BF2006A93FA93EA9308951B2EBF2FF12D1A2EB2
:100C0200AE2FE12D0895E894EE2309F0689408953B
:00000001FF
