:020000000C945E
:1000020058000C9400000C942D030C9400000C94E6
:1000120000000C9400000C9400000C9400000C945E
:1000220000000C9400000C9400000C9400000C944E
:1000320000000C9464040C9400000C94A3040C942F
:1000420000000C9400000C9400000C9400000C942E
:100052000000000000000000000000010002001883
:10006200004000C00300007004280001301C00069C
:1000720080800010808007A0000A0001E00208C012
:100082005005000E03406000381400010C200000EF
:1000920000001027E80364000A00010000100001BC
:1000A20010000100240001007303A6000000F89470
:1000B200EE27ECBBF1E0FBBFEBBFE5BFF8E1F1BD22
:1000C200E1BD8DE0A2E0BB27ED938A95E9F780E0E0
:1000D20098E0A0E6ED930197E9F7E8EAF0E0859170
:1000E2009591009761F0A591B59105901590BF018A
:1000F200F00105900D920197E1F7FB01F0CFEFE5DA
:10010200EDBFE8E0EEBFC0E6D2E00C944E03B79B31
:10011200D6C021FCD3C068940E94FA0409F4CEC070
:10012200E230A0E0FA0779F40E9400050E940E0571
:1001320049F40E9415050E942205E0917603E03001
:1001420009F4D3C0BBC0E930A0E0FA0721F4E09182
:100152007503EF5FB1C0EA30A0E0FA0789F40E94AC
:100162000005A0917903A93E19F468940E942B0519
:10017200A0917903AB3919F4E8940E942B059EC033
:10018200EB30A0E0FA07B9F40E9400050E940E05C8
:1001920089F4A0917903A83551F420FE03C0E3E06D
:1001A200E0937603E8E0E0937703E1E101C0E9E060
:1001B200E093750383C0E131A0E0FA07B9F40E942D
:1001C20000050E940E0589F4E0917903E0936F0324
:1001D200E0917903E0937603E8E0E0937703ECE0C3
:1001E200E0937503E0E0E0937A0368C0EC30A0E0AE
:1001F200FA07D9F40E9400050E943505EE0FFF1F91
:10020200DF01E0E0B599E1E00E943E050E9443056E
:10021200E07421F00E9443050E944705E0917703B4
:10022200E03011F40E944D0549C0ED30A0E0FA071C
:1002320011F00C945F010E944305EE0FFF1FDF01D6
:10024200E0E0B59BE1E00E943E050E943505E074C6
:1002520021F00E9443050E944705E0917703E030B8
:1002620069F50E944305EF73F070E0937A03E03082
:1002720089F0A0917903BB270E944305EC5AFF4FF6
:10028200E491F0E0EA27E0937903E0917803EF5FED
:10029200E09378030E941505E0917603E150E09324
:1002A2007603E0917603E03001F1E8E0E093770332
:1002B200E0E0E0937A03ECE0E09375032CC121FEC9
:1002C2002AC1E8940E94FA0409F425C1E130A0E0B1
:1002D200FA0709F5E0917703E03069F4E0917603DB
:1002E200E03019F00E94560506C0E0E0E093750385
:1002F200AD9AAE9808950E946305E078F070E03000
:1003020011F4C69801C0C69A0E9463050E9467054F
:100312000E946C0500C1E330A0E0FA07B1F40E942C
:100322006C05F0E0E17011F4C69801C0C69AE09144
:100332007703E03049F420FE02C0E9EE01C0EBE9A8
:10034200E09379030E947205E6C0E430A0E0FA0768
:10035200B1F40E946305E078F070E03011F4C698C1
:1003620001C0C69A0E9463050E9467050E940E059D
:1003720029F4E8E5E09379030E947205CCC0E530E8
:10038200A0E0FA07D9F40E946305E078F070E0304B
:1003920011F4C69801C0C69A0E9463050E946705BF
:1003A2000E940E0551F4E0916F03E0937903E8E0B7
:1003B200E0937703E0E1E0937503ADC0E031A0E0A4
:1003C200FA07C9F40E946305E078F070E03011F496
:1003D200C69801C0C69A0E9463050E9467050E94E2
:1003E2000E0541F40E945605E0E0E0937A03E6E050
:1003F200E093750390C0E630A0E0FA0711F00C9488
:1004020047020E946305E078F070E03011F4C6986C
:1004120001C0C69A0E9463050E9467050E943505C5
:10042200EE0FFF1FDF01E0E0C699E1E00E943E050A
:100432000E944305E07421F00E9443050E94470593
:10044200E0917703E03009F5E6E0E0937703E0918D
:100452007703E03089F00E944305EE0FFF1FE0931F
:100462007A030E944305E07421F00E9443050E9432
:1004720047050E946C05EBCF0E944305AFEFB0E049
:10048200EA27E0937A030E944D0545C0E730A0E0D9
:10049200FA0771F50E944305E072F070E03011F442
:1004A200C69801C0C69A0E944305EE0FFF1FE09353
:1004B2007A030E940E05D9F4E0917603E03079F4D4
:1004C200A0E0C699A1E0E1E0EA27E0937A03E09197
:1004D2007203E0937703E0917503EF5F06C00E9419
:1004E2005605E0E0E0937A03E6E0E093750313C07B
:1004F200E830A0E0FA0779F4E0917A03E03011F4F1
:10050200C69801C0C69A0E940E0529F4E0E0E09365
:100512007503AD9AAE980895E09175030895E88148
:10052200F9816A817B81E0936002F09361026093BA
:10053200620270936302E1E0E0936E03E0E00E94E6
:100542007B05AD98E1E0E0937503979824960895B2
:10055200E4E0E0936E03E8E00E947B05AD9AE2E0FE
:10056200E09375039798D8DFE030E9F7E0916302F2
:10057200F09164026091650270916602E0700895E4
:10058200AE98AD9AE0E0E09375030895E0E0E09361
:100592007503AE98AD9A0895E8810E94FC0520F893
:1005A200E0E0E0936E03E0E1E0937703E981E0931A
:1005B2007603AE98AD98E3E0E093750397982296A0
:1005C2000895E3E0E0936E03E0917303E093760312
:1005D200E0E0E0937803AE98AD9AE9E0E09375032A
:1005E200979808951A930A9300E010E0EA810E9416
:1005F200820584F4E2E0F0E00E948705F801AB8115
:10060200BC81AE0FBF1FEC91EA930E94BA040F5F48
:100612001F4FECCF19810881259608951A930A93EA
:1006220000E010E000E010E0E0916F030E9482051C
:100632006CF4F801E05AFD4FFF93EF930E9490048F
:10064200AF91BF91EC930F5F1F4FEECFE0E0E093CD
:1006520070030991199108950A921A92FA926A9373
:100662007A938A939A93AA93BA93EA93FA93EFB7F7
:10067200EA9352DFE13010F04ADD01C0979AE99126
:10068200EFBFF991E991B991A991999189917991E4
:100692006991F990199009901895D5D0E5D008D1B3
:1006A200979AF5D06DDF0E948B0536DFE030E9F7CF
:1006B2000E948B05E0E0E09370030E94D604E130D3
:1006C20020F0A0917003A03009F019C00E9490049C
:1006D200EA3AA9F4E2E3F0E00E948705E1E0E09360
:1006E20070030E949004E09371030E949004E093CF
:1006F2006F030E949305EE0FFF1F0E948705A091D2
:100702007003A13011F00C94FC0388DFE0917103B7
:10071200F0E03097D1F41CDFE0936302F0936402BF
:100722006093650270936602E3E6F2E0FA93EA935D
:100732000E94D8040E949705E3E0E09362020E94BF
:100742009F05E7E0EA934EDF56C0E130A0E0FA07EA
:1007520081F40E949F050E94D804E0916002F0910A
:10076200610260916202709163020E94F005D7DE1D
:1007720042C0E530A0E0FA0741F4E0916002F0E007
:10078200E0937303F093740336C0E430A0E0FA07F9
:1007920079F40E949705E1E0E0936202E09173032D
:1007A200E09363020E949F05E4E0EA931BDF23C00B
:1007B200E330A0E0FA07D1F4E9DE0E949305AEE04F
:1007C200B0E00E94BC05DF01E8E0F0E00E94D40541
:1007D200A8E0B0E00E94F505EA1BE0937203E09105
:1007E2006F03EA93E0E0EA93D7DE05C0E230A0E0CF
:1007F200FA0709F4E6DE9C991FC0A0E0CA99A1E0BD
:10080200A130D1F4DEDEE6E0F0E00E948705EAEAFC
:10081200E0936002E2E0E0936102E0916F03E09313
:100822006202A0916F03A13038F00E949F050E94DE
:1008320093053396EA93D6DEDB9B02C0DB9801C0B8
:10084200DB9A3BCFFFCFE0E0EBBBE8EDEABBE0E0B9
:10085200E8BBE0E5E7BBE0E0E5BBE9E6E4BBE8E8EE
:10086200E2BBE2E8E1BB0895E0E0E3BFE2BFECBF38
:10087200EFBDEEBDEDBDECBDE7BDE6BDEBBDEABD36
:10088200E9BDE8BDE2BDE5BDE4BDE3BD0895EBB75A
:10089200F0E0E068EBBFE0E0E5BFE4BFE0E8EABF1C
:1008A200E0E0E9BFE0E8E8B9E0E0E0BF789408956D
:1008B200E0E0EBB9E8EDEAB9E6E8E0BDE0E0E0BD92
:1008C200E7E4E9B90895AA93BA93EA93FA93EFB7E2
:1008D200EA931A930A931BB10CB1A12FB0E0ECE199
:1008E200F0E0EA23FB23309789F4E52DF0E0E558A8
:1008F200FC4F00835394EFEFE51509F455247394EC
:10090200EFEFE71519F47724689422F80991199109
:10091200E991EFBFF991E991B991A99118951A93CB
:100922007720F1F3E42DF0E0E558FC4F1081439479
:10093200EFEFE41509F44424F8947A947894E12FC3
:1009420019910895EA93FA93EFB7EA93882061F038
:100952008A94E92DF0E0E658FB4FE081ECB99394DC
:10096200EFEFE91509F49924E991EFBFF991E991C3
:100972001895EFEFE815E9F3F894882021F4EBB12C
:10098200F0E0E07269F4E62DF0E0E658FB4FA88152
:10099200A0836394EFEFE61509F46624839402C002
:1009A200E881ECB9789421960895E72D08951A9379
:1009B200A981BA8110961C91A981BA811396EC91F2
:1009C200A981BA811096EC93E981FA811383A981F6
:1009D200BA8111961C91A981BA811296EC91A981D2
:1009E200BA811196EC93E981FA81128318812396D8
:1009F200089521F8E0917503F0E030970895E091B1
:100A02007903F0E0EE0FFF1FDF01E0E0B599E1E0CE
:100A1200F0E0EA2BE09379030895E0917703E15047
:100A2200E0937703E0300895E0916E03EF5FE09387
:100A32006E03E150F0E0E05AFD4FA0917903A083EC
:100A42000895E8E0E0937703E0917603E150E093C4
:100A52007603089520F8E8E0E0937703E0917503C8
:100A6200EF5FE09375030895E0917703E150E0931F
:100A72007703E0917A03F0E00895F0E0EA2BE09347
:100A82007A030895E0917A03F0E00895A9E3B0E0D3
:100A9200EA27E0937A030895E6E0E0937703E09192
:100AA2007503EF5FE09375030895E0916E03EF5FC6
:100AB200E0936E03E150F0E0E05AFD4FE081E093F5
:100AC2007903BFCFE0917903F0E00895EE0FFF1FA5
:100AD200E09379030895E0917703E150E09377037F
:100AE2000895E8E0E0937703E0917503EF5FE09308
:100AF20075030895E0937703E3E0E0937603AE9AFB
:100B02000895D801F0E0AE17BF070895FA93EA936B
:100B12000C94A405E0E0F3E166E377ED0E94F005B2
:100B22000C949002E0916F03F0E00895EAEAE093FA
:100B32006002E0917103E09361020895E0E6F2E061
:100B4200FA93EA930895E991F991309639F080EA9F
:100B52009FE00197F1F7A8953197C9F70895F195AC
:100B6200E195F0400895FA9FF02DEB9FF00DEA9F7A
:100B7200E02DF10D089525D0F6DF0EF4F0DF089593
:100B82000024112490E1AA0FBB1F001C111C0E1A95
:100B92001F0A18F40E0E1F1E01C0A1609A9599F744
:100BA200FD01D0010895E894B7FF04C0A095B09567
:100BB20011966894F7FDD3DFE3DFFD010EF4CFDF7A
:100BC2000895E894F7FF02C0CADF6894B7FF06C031
:100BD200A095B095119600F8039400FA08957A93BF
:100BE2006A93FA93EA9308951B2EBF2FF12D1A2EC2
:100BF200AE2FE12D0895E894EE2309F0689408954C
:00000001FF
